:100000000C9436000C94300D0C94570D0C945E003B
:100010000C945E000C945E000C945E000C945E00E8
:100020000C945E000C945E000C945E000C945E00D8
:100030000C945E000C945E000C945E000C945E00C8
:100040000C94340C0C945E000C94D50D0C94070E9B
:100050000C945E000C945E000C945E000C945E00A8
:100060000C945E000C945E002A0D2D0E11241FBE10
:10007000CFEFD8E0DEBFCDBF13E0A0E0B1E0E6E90E
:10008000FFE102C005900D92AA3FB107D9F727E022
:10009000AAEFB3E001C01D92A13BB207E1F710E067
:1000A000C6E3D0E004C02197FE010E94B40FC43320
:1000B000D107C9F70E941B0D0C94880F0C94000007
:1000C000E4E10E9415010895E2E10E9415010895FE
:1000D000EAE00E9415010895E1E00E9415010895EB
:1000E000E3E00E9415010895E7E00E9415010895DC
:1000F000E5E00E9415010895E0E00E9415010895D1
:10010000E2E00E9415010895E4E00E9415010895BF
:10011000ECE00E9415010895EBE10E94150108959D
:10012000EEE00E9415010895E8E00E94150108958F
:10013000E0E10E9415010895EAE10E941501089589
:10014000E6E00E9415010895E8E10E941501089576
:10015000E9E00E9415010895EBE00E941501089561
:10016000EDE00E9415010895EFE00E941501089549
:10017000E1E10E9415010895E3E10E94150108954F
:10018000E5E10E9415010895E7E10E941501089537
:10019000E9E10E9415010895E6E10E941501089524
:1001A00021968A929A92AA92BA92CA92DA92EA9284
:1001B000FA920A931A932197E0916901F0916A01EA
:1001C0000080F181E02DC083D1830895C0916B013F
:1001D000D0916C01E881F981C081D181219619917A
:1001E0000991F990E990D990C990B990A990999006
:1001F0008990219708952F903F90E7E6F1E0CDB7E1
:10020000DEB7EDBFFEBF3F922F9208952F903F9033
:10021000CDBFDEBF3F922F920895E0E80E94150106
:100220000895E0E40E94150108952F923F924F92A5
:100230005F926F927F922FB62F92CF93DF937E2E95
:10024000F894E0910001EF5FE0930001E13011F4D8
:100250000E94FB00E0E0E0937901E72DE07849F0AF
:100260000E947505F0917A01F17071F00E9402040C
:100270000BC0E72DEC3140F4EE0FF0E0E355FC4FFE
:100280000190F081E02D0995F0917901EF2FE17057
:1002900059F0F27011F00E94D0008F938F2F0E94BE
:1002A0004C038F910E94E600209100012150209381
:1002B0000001222311F40E940601DF91CF912F90BB
:1002C0002FBE7F906F905F904F903F902F9008953A
:1002D000FC014081FB013081842F8F7090E0B0E001
:1002E000A0E0B695A79597958795815F9B4FFC01F8
:1002F0008081242F281B21704E70242B832F8F7018
:1003000090E0B0E0A0E0B695A79597958795815FBE
:100310009B4FFC018081932F981B91703E70932B13
:1003200041E050E0291710F050E040E0CA01089584
:100330008F929F92AF92BF92EF92FF920F931F9373
:10034000CF93DF937C014A015B01B694A794979405
:100350008794423051056105710580F0440F551FA7
:100360008701040F151FE401CC0FDD1FCE0DDF1D2B
:10037000B801CE010E946801892B59F4DF91CF9119
:100380001F910F91FF90EF90BF90AF909F908F9033
:100390000895F801908181812881398131832083FA
:1003A00098838983B501A401D0CF4F925F926F9259
:1003B0007F928F929F92AF92BF92CF92DF92EF92F5
:1003C000FF920F931F93CF93DF9300D000D000D004
:1003D000CDB7DEB78C016A017B01DC018C91282F3F
:1003E00030E050E040E029833A834B835C83460150
:1003F0005701880C991CAA1CBB1C29813A814B818E
:100400005C81281539054A055B05B8F426960FB6B8
:10041000F894DEBF0FBECDBFDF91CF911F910F913A
:10042000FF90EF90DF90CF90BF90AF909F908F9014
:100430007F906F905F904F900895240135013FEFBA
:10044000431A530A630A730A89819A81AB81BC817A
:1004500084159505A605B70580F0B201660F771FD4
:10046000600F711FC401880F991F800F911F0E9498
:100470006801892B11F0530142013401660C771C8D
:10048000600E711ECC0CDD1CD801AC0DBD1DBE83F1
:10049000AD83B301CD010E946801892B09F4B6CF69
:1004A000ED81FE8190818181D3012D913C91119745
:1004B000318320839C9311968C937501640197CFAF
:1004C000EAECF6E040814F5F408350E070E060E08E
:1004D000E82FEE0FFF0BE45DFC4F0190F081E02D63
:1004E000238530E0F901E15FFB4F908191509083CB
:1004F000FA01EE0FFF1FE653F94F220F331F9170E1
:10050000922B908381838AEC96E00C949801EAEC1C
:10051000F6E040814F5F408350E070E060E0FA0118
:10052000EE0FFF1FE653F94FA82FAA0FBB0BA05EDB
:10053000BC4F0D90BC91A02D13969C91908381830C
:100540008AEC96E00C949801CF93DF93EAECF6E006
:1005500080819FEF980F9083D281C38190E0880FB4
:10056000991F8653994FDC018D919C9193838283CF
:1005700041E050E060E070E0CF010E94D5018D2F96
:100580009C2FDF91CF9108958091FA03811114C0BF
:100590008091710190917201A0917301B0917401E9
:1005A0008F3F2FEF9207A207B20741F00597A105F1
:1005B000B10534F481E0089584E0089580E0089561
:1005C00082E00895CF93DF93880F990BFC01E45DDF
:1005D000FC4F0190F081E02D0084F185E02D3097F3
:1005E000E1F02281211119C021E02283805E9C4F1D
:1005F000EC01A881B98113968C9113978183208196
:1006000030E0F901E15FFB4F808181508083220F50
:10061000331F8170822B13968C93DF91CF910895B5
:10062000CF93DF93880F990BFC01E45DFC4F0190A1
:10063000F081E02D0084F185E02D309761F022817A
:10064000213049F41282805E9C4FEC01A881B9816F
:10065000818113968C93DF91CF91089580917501DC
:1006600090917601A0917701B0917801409171014C
:10067000509172016091730170917401481759078C
:100680006A077B0741F0E0916F01F091700121E072
:1006900024830C9487020895CF93DF93D0E0C0E0C9
:1006A000882389F0C0916901D0916A01E0916D01C0
:1006B000F0916E018481833031F081E084838091F8
:1006C00071010E948702E0916F01F0917001F09337
:1006D0006E01E0936D0180916B0190916C0190939C
:1006E0006A018093690180917501309176012091B2
:1006F000770190917801809371013093720120937A
:1007000073019093740192E094830E94E202CE01FF
:10071000DF91CF910895809171010E941003E091C3
:100720006D01F0916E018281882319F085E0848348
:10073000089514820895CF93DF93282F220F330B4F
:10074000F901E05EFC4FC081D1819A81245D3C4F6C
:10075000D901ED91FC912485921780F4911105C087
:1007600095E09C8391E090937A010E9460028A81D7
:100770008F5F8A8380E0DF91CF91089584E0FBCF83
:10078000E82FEE0FFF0BE05EFC4F0190F081E02DB3
:10079000118210820C94D40C1F93CF93DF930E948C
:1007A000A402182F892F492F092E000C550B660B18
:1007B000770B4093750150937601609377017093A6
:1007C0007801292F220F330BF901E05EFC4FC08125
:1007D000D181D0937001C0936F01245D3C4FF9012A
:1007E0002081318130936C0120936B019C81953085
:1007F00019F40E94C0031B8310927A01DF91CF91FC
:100800001F910895E0917501F0917601EE0FFF1FA1
:10081000E05EFC4F0190F081E02D9091CC06838149
:10082000891740F40E942E030E94CC0383E080933A
:100830007901089580E0FBCF81E0809379010C94E9
:10084000CC03EF92FF920F931F93CF93DF93C1E0FE
:1008500001C0CC0F8A95EAF7209136033091370317
:1008600080912A0390912B031092CA0610926A017C
:100870001092690130936C0120936B0110926E010C
:1008800010926D019093700180936F018FEF9FEF35
:10089000DC018093710190937201A0937301B09376
:1008A00074018093750190937601A0937701B093C2
:1008B00078011092790110927A0185E00E949B03E1
:1008C00007EA13E0D0E0F80181918F018C2319F041
:1008D0008D2F0E949B03DF5FD530A9F703EA13E059
:1008E00084EFE82E82E0F82ED1E0F80181918F01AB
:1008F0008C2339F0F70180819181FC01D6870E9419
:10090000B904F2E0EF0EF11C83E0073A180769F72B
:10091000DF91CF911F910F91FF90EF9008950E946A
:10092000F80681110E941907E0916D01F0916E01A6
:1009300080819181892B21F0809171010E94DE08D4
:100940000C9441080E94F80681110E941907E09159
:100950006D01F0916E0180819181892B21F0809150
:1009600071010E94DE080C94290881E08093FB034A
:100970000895CF92DF92EF92FF920F931F93CF9340
:10098000DF93FC01A081B1810D90BC91A02D549604
:100990008D919C915597009709F445C042855385E8
:1009A0006485758530E020E0EC01CA84DB84EC844A
:1009B000FD844C155D056E057F0508F049C08C016E
:1009C00013830283358324830115110519F0E8018F
:1009D000FD83EC832115310509F444C0E901FB8353
:1009E000EA835696CD91DC9157970A851B852C8515
:1009F0003D855096CD90DD90ED90FC9053970C1571
:100A00001D052E053F0598F5C416D506E606F70622
:100A100028F0401751076207730788F45796FC9334
:100A2000EE9356970CC05596FC93EE9354975796B9
:100A3000FC93EE9356971582148213821282DF91F3
:100A4000CF911F910F91FF90EF90DF90CF9008957D
:100A5000EC010A811B819C010115110509F4B0CF3D
:100A6000C801A2CF5596FC93EE935497BACFC41603
:100A7000D506E606F70668F2E2CFCF93DF93DC01F6
:100A8000ED91FC9111970190F081E02D8489958979
:100A90001296CD91DC9113978A179B0711F4D58B91
:100AA000C48B868997898A179B0711F4D78BC68BCD
:100AB000209731F014968D919C9115979D838C838E
:100AC00014960D90BC91A02D109721F01396DC93F5
:100AD000CE93129786899789892B21F484899589E9
:100AE000978B868BDF91CF910895EF92FF920F93B2
:100AF0001F93CF93DF93FC018091FB03882309F4BC
:100B0000ACC084859585A685B7850196A11DB11DCC
:100B100084879587A687B7874081518162817381D9
:100B200084179507A607B70709F097C080899189B0
:100B3000A289B3890196A11DB11D448155816681A9
:100B40007781481759076A077B0718F480E090E01F
:100B5000DC01808B918BA28BB38B14861586168655
:100B60001786C689D789209709F477C04A855B859F
:100B70006C857D85481759076A077B0709F06DC0AA
:100B8000CE01DC011296ED90FC90E114F10469F0C5
:100B9000D7011A960D911D912D913C911D974017EB
:100BA00051076207730709F45FC02C813D8121154D
:100BB000310529F0D9011396FC92EE921297E114B7
:100BC000F10429F0D70115963C932E9314972489AC
:100BD0003589C217D30711F4F58AE48AE114F104C8
:100BE00009F444C0F78AE68A8F01FC01138212825D
:100BF000EA80FB80E881F9810280F381E02DCE015B
:100C000009958E819F81A885B9850097A105B105B9
:100C100091F14A855B856C857D85840F951FA61FA4
:100C2000B71FF801448155816681778148175907BC
:100C30006A077B0740F44095509560957095840F46
:100C4000951FA61FB71F8A879B87AC87BD87CE01DC
:100C50000E94B904E701209759F6DF91CF911F91C7
:100C60000F91FF90EF900895C7018BCF24893589AC
:100C7000378B268BB9CF1E86EDCFFC0182810C9479
:100C80009B03DB011C962C911C971A96ED91FC910D
:100C9000AC01420F511D27FD5A959A01281B390BB3
:100CA0001216130614F080E008952191DC012D93B3
:100CB000CD01F3CFDA01109749F0ED91FC91119736
:100CC000309721F0AB01BC01CD01099481E008957A
:100CD00081E00895EF92FF921F93CF93DF937B0102
:100CE000DC011296CD91DC91209711F410E017C031
:100CF000EC81FD81B701CE010995182F81110DC03E
:100D000088819981009721F40A80DB81C02DECCF86
:100D1000DC01ED91FC910995F7CF8E30A9F380E0CD
:100D20000E94C506812FDF91CF911F91FF90EF9018
:100D30000895EF92FF920F931F93CF93DF93EC01EF
:100D40007B010A851B8548855985C8010E945A0682
:100D50008823C9F08C85D701F8019F01280F311D28
:100D600087FD3A95C9018E1B9F0B1816190644F092
:100D700080E0DF91CF911F910F91FF90EF90089548
:100D80008D918193EFCF8EE0F4CF80917A01811124
:100D90000C9402040895FC01A081B1818C918823F8
:100DA00049F011969C9124813581A901490F511D6B
:100DB000CA01089590E080E008950E94F8068091AD
:100DC00068010895809368010E9421040E94B5047F
:100DD0000C941C040C94D30CCF93C82F0E94C40213
:100DE000811102C00E94110D8C2FCF910C946400D0
:100DF000809108048130D9F0809100049091010421
:100E0000A0910204B0910304892B8A2B8B2B79F4D7
:100E100081E04091040450910504609106047091B2
:100E20000704452B462B472B19F480E0089581E0F9
:100E30000895109208041092040410920504109270
:100E400006041092070410920004109201041092FC
:100E50000204109203048091FC039091FD03A09181
:100E6000FE03B091FF038093090490930A04A093BA
:100E70000B04B0930C0408950E94140D8091090492
:100E800090910A04A0910B04B0910C040196A11D4D
:100E9000B11D8093090490930A04A0930B04B093AE
:100EA0000C048091040490910504A0910604B09173
:100EB00007040196A11DB11D8093040490930504BD
:100EC000A0930604B09307040895809104049091C0
:100ED0000504A0910604B09107040097A105B1058F
:100EE00069F14091090450910A0460910B047091DA
:100EF0000C04415051096109710940930904509350
:100F00000A0460930B0470930C040197A109B109C2
:100F10008093040490930504A0930604B0930704FF
:100F20008091090490910A04A0910B04B0910C04E3
:100F3000892B8A2B8B2B11F40C94120D0895809120
:100F4000040490910504A0910604B0910704892B34
:100F50008A2B8B2B89F48091000490910104A0913D
:100F60000204B0910304892B8A2B8B2B29F40E9455
:100F7000140D81E08093080408958091080488236B
:100F800021F0109208040C94120D08950E94180D7F
:100F90008091090490910A04A0910B04B0910C0473
:100FA0000196A11DB11D8093090490930A04A0939A
:100FB0000B04B0930C048091000490910104A09163
:100FC0000204B09103040196A11DB11D8093000499
:100FD00090930104A0930204B093030408958091B8
:100FE000000490910104A0910204B09103040097C1
:100FF000A105B10569F14091090450910A0460917D
:101000000B0470910C04415051096109710940931E
:10101000090450930A0460930B0470930C04019725
:10102000A109B1098093000490930104A0930204E4
:10103000B09303048091090490910A04A0910B04D9
:10104000B0910C04892B8A2B8B2B11F40C94160D68
:1010500008950E94F806882311F083E1089580E046
:101060000895CF93C82F0E94F8068C2F0E949B03EF
:10107000C82F80917A0181110E9402048C2FCF9198
:101080000895CF930E94F806C3E1811101C0C0E02A
:10109000E0916D01F0916E018281815082830E9406
:1010A0008B0381E0809379010E94CC038C2FCF9138
:1010B0000895CF93C82F0E94F806E0916D01F0913A
:1010C0006E018281815082838C2F0E949B03C82FE6
:1010D00081110AC00E948B0381E0809379010E94F4
:1010E000CC038C2FCF910895E0916D01F0916E01AA
:1010F00082818F5F8283F5CFCF930E94F806C3E190
:10110000811101C0C0E0809171010E9410030E9412
:1011100002048091710190917201A0917301B091CC
:101120007401409175015091760160917701709141
:10113000780184179507A607B70711F40E94E20209
:101140008C2FCF910895CF93DF93EC010E94F80686
:10115000882391F083E14091710150917201609177
:10116000730170917401453051056105710534F4C6
:101170004883DF91CF91089580E0EDCF9091FB01FE
:101180009883F7CF0F931F93CF93C82F8B010E94A3
:10119000F806882389F083E1EC2FEE0FFF0BE05E69
:1011A000FC4F0190F081E02D94819370F8019083C1
:1011B000CF911F910F91089580E0EECF880F990B8A
:1011C000FC01E05EFC4FA081B181ED91FC91119793
:1011D000309769F01D921C922091FB0193818481CC
:1011E000228314821382E92FF82F3097B9F70895DC
:1011F000CF93C82F0E94F806882381F183E1EC2F5A
:10120000F0E0EE0FFF1FE457FC4F0190F081E02D5E
:10121000909171019283A0916D01B0916E012D9119
:101220003C911197348323831196FC93EE9313968C
:101230009C911397918320819695921768F430E0E2
:10124000F901E15FFB4F908191509083220F331F92
:101250009170922B13969C93CF91089580E0CFCFFD
:10126000CF93DF93C82F0E94F806D3E1811101C00C
:10127000D0E0EC2FF0E0EE0FFF1FE457FC4F0190A1
:10128000F081E02DA0916D01B0916E0181811396E6
:101290008C931397838194818D939C9314821382F2
:1012A0008091FB0182830E9402048D2FDF91CF91F8
:1012B0000895DC01ED91FC9184819581DC01ED9133
:1012C000FC9109941F93CF93DF93182FEB010E9499
:1012D000F806882361F183E1E12FF0E0EE0FFF1FB4
:1012E000EC50FD4F0190F081E02D0190F081E02D58
:1012F0000190F081E02D40815181628173814C83A6
:101300005D836E837F8344815581668177814883C5
:1013100059836A837B8340855185628573854887BD
:1013200059876A877B87DF91CF911F91089580E06D
:10133000D3CF8F929F92AF92BF92CF92DF92EF92D4
:10134000FF920F931F93CF93C82F8B010E94F80633
:101350008823E9F183E1EC2FF0E0EE0FFF1FEC5062
:10136000FD4F0190F081E02D9685913091F54285F9
:101370005385648575850190F081E02D0190F081A1
:10138000E02DC088D188E288F3884C155D056E0594
:101390007F0540F484809580A680B780480D591D54
:1013A0006A1D7B1D4C195D096E097F09F801408398
:1013B000518362837383CF911F910F91FF90EF90C0
:1013C000DF90CF90BF90AF909F908F90089580E076
:1013D000C2CF85E0F0CF8F929F92AF92BF92CF9213
:1013E000DF92EF92FF920F931F93CF93DF93D82F4B
:1013F0006A017B01480159010E94F806C3E181118D
:1014000001C0C0E0ED2FF0E0EE0FFF1FEC50FD4FEC
:101410000190F081E02D868581113DC0A081B181D0
:101420000D90BC91A02D50964D915D916D917C9148
:1014300053974C0D5D1D6E1D7F1D14968D919D91D2
:101440000D90BC91A02D84179507A607B70740F40F
:10145000481B590B6A0B7B0B4150510961097109FB
:10146000428753876487758786829782A086B18674
:1014700081E08687CF010E94B9048C2FDF91CF9144
:101480001F910F91FF90EF90DF90CF90BF90AF90A2
:101490009F908F900895C7E0F0CF8F929F92AF9268
:1014A000BF92CF92DF92EF92FF920F931F93CF9351
:1014B000DF93C82F4A015B01680179010E94F80699
:1014C000D3E1811101C0D0E0EC2FF0E0EE0FFF1F5F
:1014D000EC50FD4F0190F081E02D868581111BC0FD
:1014E00082869386A486B586C682D782E086F186F8
:1014F00081E08687CF010E94B9048D2FDF91CF91C3
:101500001F910F91FF90EF90DF90CF90BF90AF9021
:101510009F908F900895D7E0F0CF0F931F93CF93B4
:10152000DF93C82F0E94F806D3E1811101C0D0E0FB
:10153000EC2FF0E0EE0FFF1FEC50FD4F008111810A
:10154000F8018685813059F4C8010E943D05F801F3
:1015500016868D2FDF91CF911F910F910895D5E0C1
:10156000F8CFCF93DF93880F991FFC01E755FD4F0C
:101570000190F081E02D8585882379F0C285D3859F
:10158000CF010A960E94CB06892B49F08A818823D5
:1015900041F08CE0DF91CF9108958AE0FBCF8DE0A0
:1015A000F9CF80E0F7CF880F991FFC01EF56FD4F70
:1015B00080819181DC01ED91FC9109949B01880F60
:1015C000991FFC01E755FD4F60817181DB01169683
:1015D000ED91FC91C9010994880F991FFC01EF5608
:1015E000FD4F80819181DC01ED91FC9170E060E024
:1015F000099580E0089526E040E052EC61E070E05B
:1016000085E294E00C94260F8F929F92AF92BF9246
:10161000CF92DF92EF92FF9228EF31E0DC010E943F
:10162000AD0F4B015C01C12CD12C7601C814D9043B
:10163000EA04FB0441F00E948C0C8FEFC81AD80A10
:10164000E80AF80AF3CFFF90EF90DF90CF90BF90B9
:10165000AF909F908F9008950E948C0C683C71050C
:101660008105910560F481E080930E046EE074E0E2
:1016700080918E0390918F030E94C0001CC06EE089
:1016800074E080919E0390919F030E94C400882380
:1016900041F06EE074E080918E0390918F030E9480
:1016A000C0006EE074E080919C0390919D030E94C5
:1016B000C4008111DBCF0C948C00CF93DF936EE0DC
:1016C00074E080919803909199030E94C4008091E6
:1016D0000E04811101C0FFCF6DE074E080919A0388
:1016E00090919B030E94C400C0919403D0919503F4
:1016F00080910E048823E1F080910D04811118C0BF
:101700006EE074E0CE010E94C0006CEF71E085E2F3
:1017100094E00E94BE0D88EC90E00E94040B69E00A
:1017200072E085E294E00E94BE0D10920E04E0CFBC
:1017300081E080930E046EE074E0CE010E94C00050
:10174000DF91CF910C948C0064E172E085E294E02B
:101750000E94BE0D8CEB92E00E94040B61E272E0ED
:1017600085E294E00E94BE0D0C948C00FF920F93D2
:101770001F93CF93DF936CE272E085E294E00E94C6
:10178000BE0D84E690E00E94040B66E472E085E200
:1017900094E00E94BE0D6EE074E0809196039091FB
:1017A00097030E94C40080910E04811101C0FFCFF5
:1017B000C0919003D09191030091920310919303F3
:1017C000FF24F39480910E048823F9F0F0920D0425
:1017D0006DE074E0CE010E94C0006EE572E085E22B
:1017E00094E00E94BE0D88EC90E00E94040B64E738
:1017F00072E085E294E00E94BE0D10920E046EE04D
:1018000074E0C8010E94C000DDCF10920D0481E099
:1018100080930E046EE074E0C8010E94C0006DE089
:1018200074E0CE010E94C000DF91CF911F910F9113
:10183000FF900C948C0068E872E085E294E00E94CE
:10184000BE0D8091A2030E94BC008091A1030E9462
:10185000BC008091A0030E94BC000C948C008AED17
:1018600091E00C940D0108951F920F920FB60F9204
:1018700011242F933F934F935F936F937F938F9395
:101880009F93AF93BF93EF93FF9380911C0490912C
:101890001D04A0911E04B0911F0430911B0423E08D
:1018A000230F2D3798F50196A11DB11D20931B0420
:1018B00080931C0490931D04A0931E04B0931F04F6
:1018C0008091200490912104A0912204B0912304DE
:1018D0000196A11DB11D8093200490932104A09333
:1018E0002204B09323040E942F0CFF91EF91BF912B
:1018F000AF919F918F917F916F915F914F913F91A8
:101900002F910F900FBE0F901F90189526E8230F70
:101910000296A11DB11DCACF2FB7F89460911C0487
:1019200070911D0480911E0490911F042FBF089593
:1019300084B5826084BD84B5816084BD85B58260D4
:1019400085BD85B5816085BDEEE6F0E08081816072
:101950008083E1E8F0E01082808182608083808172
:1019600081608083E0E8F0E0808181608083E1EB4A
:10197000F0E0808184608083E0EBF0E08081816032
:101980008083EAE7F0E080818460808380818260E8
:1019900080838081816080838081806880831092D1
:1019A000C1000895FFCFFFCFCF93DF93880F990B2E
:1019B000FC01E45DFC4FC081D181EC81FD81319758
:1019C0008A819B81E80FF91F8D85DF011197823095
:1019D00029F584E890E080839C939E818F81DF01CC
:1019E00012979C9311978C93CF0104979F012950D4
:1019F00031091E92A217B307E1F720E8DF011A9719
:101A00002C9342971E92A817B907E1F7A881B981D4
:101A10007797ED93FC93DF91CF91089580EA90E062
:101A2000DACF089578940895F894089578940895F5
:101A3000F894089508950E94980C0E941A0D0E942F
:101A4000330C0E94FB0A809124040E94EC0690E073
:101A500080E008958091AC03809324040895089554
:101A60001F920F920FB60F9211242F933F934F9313
:101A70005F936F937F938F939F93AF93BF93EF93F6
:101A8000FF93E091F701F091F8010995FF91EF9133
:101A9000BF91AF919F918F917F916F915F914F9186
:101AA0003F912F910F900FBE0F901F9018951F928E
:101AB0000F920FB60F9211242F933F934F935F9382
:101AC0006F937F938F939F93AF93BF93EF93FF9306
:101AD000E091F901F091FA010995FF91EF91BF9121
:101AE000AF919F918F917F916F915F914F913F91B6
:101AF0002F910F900FBE0F901F901895AF92BF922D
:101B0000CF92DF92EF92FF920F931F93CF93DF93C9
:101B10006C017B018B01040F151FEB015E01AE18F8
:101B2000BF08C017D10759F06991D601ED91FC911A
:101B30000190F081E02DC6010995892B79F7C50147
:101B4000DF91CF911F910F91FF90EF90DF90CF9099
:101B5000BF90AF900895FB0101900020E9F7319705
:101B6000AF01461B570BDC01ED91FC910280F38124
:101B7000E02D099465EE73E00C94AB0D0F931F9369
:101B8000CF93DF938C01D0E0C0E06115710519F0AF
:101B90000E94AB0DEC01C8010E94BA0D8C0F9D1F75
:101BA000DF91CF911F910F9108951F920F920FB661
:101BB0000F9211242F938F939F93EF93FF93E091B4
:101BC0003504F09136048081E0913B04F0913C04AF
:101BD00082FD1BC0908180913E048F5F8F732091A6
:101BE0003F04821741F0E0913E04F0E0EB5DFB4FD3
:101BF000958F80933E04FF91EF919F918F912F914C
:101C00000F900FBE0F901F9018958081F4CF1F92F8
:101C10000F920FB60F9211242F933F934F935F9320
:101C20006F937F938F939F93AF93BF93EF93FF93A4
:101C300085E294E00E94970EFF91EF91BF91AF91E2
:101C40009F918F917F916F915F914F913F912F91D4
:101C50000F900FBE0F901F901895E5E2F4E01382ED
:101C6000128288EE93E0A0E0B0E084839583A6839F
:101C7000B7838CEE93E09183808385EC90E0958729
:101C8000848784EC90E09787868780EC90E0918B46
:101C9000808B81EC90E0938B828B82EC90E0958B33
:101CA000848B86EC90E0978B868B118E128E138E30
:101CB000148E0895FC01918D228D892F90E0805C17
:101CC0009F4F821B91098F7399270895FC01918D75
:101CD000828D981731F0828DE80FF11D858D90E08F
:101CE00008958FEF9FEF0895FC01918D828D9817D5
:101CF00061F0A28DAE0FBF2FB11D5D968C91928DBC
:101D00009F5F9F73928F90E008958FEF9FEF0895EC
:101D1000FC01538D448D252F30E0842F90E0821BF1
:101D2000930B541710F0CF96089501970895FC0176
:101D3000A48DA80FB92FB11DA35ABF4F2C91848D2C
:101D400090E001968F739927848FA689B7892C9389
:101D5000A089B1898C91837080648C93938D848DDC
:101D6000981306C00288F389E02D80818F7D8083DF
:101D70000895CF93DF93EC01888D8823B9F0AA8969
:101D8000BB89E889F9898C9185FD03C0808186FD36
:101D90000DC00FB607FCF7CF8C9185FFF2CF808185
:101DA00085FFEDCFCE010E94970EE9CFDF91CF9155
:101DB0000895EF92FF920F931F93CF93DF93EC015F
:101DC00081E0888F9B8D8C8D98131AC0E889F989E2
:101DD000808185FF15C09FB7F894EE89FF896083E5
:101DE000E889F98980818370806480839FBF81E066
:101DF00090E0DF91CF911F910F91FF90EF900895A8
:101E0000F62E0B8D10E00F5F1F4F0F731127E02E82
:101E10008C8D8E110CC00FB607FCFACFE889F989BA
:101E2000808185FFF5CFCE010E94970EF1CFEB8D1B
:101E3000EC0FFD2FF11DE35AFF4FF0829FB7F8948E
:101E40000B8FEA89FB8980818062CFCFCF92DF92AE
:101E5000EF92FF921F93CF93DF93EC016A017B0116
:101E6000122FE889F98982E08083C11481EED806B7
:101E7000E104F104A1F060E079E08DE390E0A701D6
:101E800096010E948B0F2150310941095109569545
:101E9000479537952795211580E1380798F0E8890F
:101EA000F989108260E874E88EE190E0A70196015C
:101EB0000E948B0F215031094109510956954795D0
:101EC00037952795EC85FD853083EE85FF8520834A
:101ED000188EEC89FD891083EA89FB8980818061F5
:101EE0008083EA89FB89808188608083EA89FB8915
:101EF000808180688083EA89FB8980818F7D8083EF
:101F0000DF91CF911F91FF90EF90DF90CF900895D8
:101F1000F8940C94C90FA1E21A2EAA1BBB1BFD0159
:101F20000DC0AA1FBB1FEE1FFF1FA217B307E407B8
:101F3000F50720F0A21BB30BE40BF50B661F771F10
:101F4000881F991F1A9469F76095709580959095F0
:101F50009B01AC01BD01CF0108950E94BA0FB7FFEC
:101F60000895821B930B0895EE0FFF1F0590F491C7
:101F7000E02D0994A29FB001B39FC001A39F700DF3
:101F8000811D1124911DB29F700D811D1124911D81
:061F90000895F894FFCF54
:101F9600000000000000000000000000000000003B
:101FA600000000000000000000000000000000002B
:101FB600000000000000000000000000000000001B
:101FC600000000000000000000000000000000000B
:101FD60000000000000000000000000000000000FB
:101FE60000000000000000000000000000000000EB
:101FF6000000000000000000FF00007E0300001645
:1020060004FFFFFFFFFFFFFFFF000068066806688A
:102016000668066806FC02000000000000000010CA
:10202600A4000002050300000000F00A0000F00A08
:102036000000020E0300000000DC050000DC0500C5
:102046000002170300000000E8030000E803000098
:102056000200000005000000000404000000030464
:102066000000000204000000010401000000FFFF60
:102076000000010000000000000000000000000059
:1020860000000600FF00002F0D2F0DFF7461736B1B
:102096004120737461727473007461736B412065BF
:1020A6006E6473007461736B42207374617274732F
:1020B600007461736B4220656E6473007461736BA8
:1020C60043206E6F6E2D637269746963616C207351
:1020D6007461727473007461736B43206E6F6E2D3E
:1020E600637269746963616C20656E647300746100
:1020F600736B4320637269746963616C20737461E6
:10210600727473007461736B4320637269746963DC
:10211600616C20656E64730053687574646F776EC6
:1021260000A502A1029D0299026A06B3026A06CDC3
:10213600026A06DA026A06E702E702DA02CD02C09E
:1021460002B3020000C002990641067B015A07014C
:1021560000000000990641067D01C7050100000048
:1021660000990641067F01C204010000000099069D
:1021760041068101AC070100000000990641068373
:10218600015B0701B201A30194018501DA01590936
:1021960002033D0604DA0159090B033D0600DA0184
:1021A600590914033D0601DA0159091D033D0602CA
:1021B600D501D001CB01C601C1011604700362032B
:1021C6005403460338037E03AD074A0680001B0C02
:1021D600000004050100AF07DA0680002C0B0000A2
:1021E60003040100C305430580005D0B00000203E4
:1021F6000100C505C3048000A40B00000102010014
:102206004806C8058000B60B000000010100D8068C
:102216005C075000D20C000005000100F20103002B
:10222600020001000000040003000200010000009B
:1022360002010001010101010101010000EF07BDDA
:1022460007C6079F07A2043C078F0465077C083072
:1022560009EA066209310899095908EB09A3084DEC
:102266000AE2068D0ADD06D30AB10ADE0AF808EC90
:102276000AC20841080D0A0000000000D90E7E0DB2
:0A228600880EB90E5A0E740E660E93
:00000001FF
