:100000000C9436000C94B60B0C94DD0B0C945E0033
:100010000C945E000C945E000C945E000C945E00E8
:100020000C945E000C945E000C945E000C945E00D8
:100030000C945E000C945E000C945E000C945E00C8
:100040000C94BA0A0C945E000C94CE0C0C94000D27
:100050000C945E000C945E000C945E000C945E00A8
:100060000C945E000C945E00B00B260D11241FBE94
:10007000CFEFD8E0DEBFCDBF13E0A0E0B1E0E8E80D
:10008000FDE102C005900D92AA34B107D9F726E030
:10009000AAE4B3E001C01D92A837B207E1F710E06F
:1000A000C6E3D0E004C02197FE010E94AD0EC43328
:1000B000D107C9F70E94A10B0C94810E0C9400008B
:1000C000E2E10E9405010895E9E00E94050108951A
:1000D000EAE00E9405010895E1E00E94050108950B
:1000E000E3E00E9405010895E7E00E9405010895FC
:1000F000E5E00E9405010895E0E00E9405010895F1
:10010000E2E00E9405010895E4E00E9405010895DF
:10011000ECE00E9405010895E8E00E9405010895C1
:10012000EEE00E9405010895E4E10E9405010895B2
:10013000E0E10E9405010895E7E10E9405010895AC
:10014000E6E00E9405010895EBE00E940501089594
:10015000EDE00E9405010895EFE00E940501089579
:10016000E1E10E9405010895E3E10E94050108957F
:10017000E5E10E9405010895E6E10E940501089568
:1001800021968A929A92AA92BA92CA92DA92EA92A4
:10019000FA920A931A932197E0916901F0916A010A
:1001A0000080F181E02DC083D1830895C0916B015F
:1001B000D0916C01E881F981C081D181219619919A
:1001C0000991F990E990D990C990B990A990999026
:1001D0008990219708952F903F90E7E6F1E0CDB701
:1001E000DEB7EDBFFEBF3F922F9208952F903F9054
:1001F000CDBFDEBF3F922F920895E0E80E94050137
:100200000895E0E40E94050108952F923F924F92D5
:100210005F926F927F922FB62F92CF93DF937E2EB5
:10022000F894E0910001EF5FE0930001E13011F4F8
:100230000E94EB00E0E0E0937901E72DE07849F0DF
:100240000E946505F0917A01F17071F00E94F2034D
:100250000BC0E72DEC3140F4EE0FF0E0EC5FFC4F0B
:100260000190F081E02D0995F0917901EF2FE17077
:1002700059F0F27011F00E94C0008F938F2F0E94EE
:100280003C038F910E94D6002091000121502093C1
:100290000001222311F40E94F600DF91CF912F90EC
:1002A0002FBE7F906F905F904F903F902F9008955A
:1002B000FC014081FB013081842F8F7090E0B0E021
:1002C000A0E0B695A79597958795835A9C4FFC011A
:1002D0008081242F281B21704E70242B832F8F7038
:1002E00090E0B0E0A0E0B695A79597958795835AE2
:1002F0009C4FFC018081932F981B91703E70932B33
:1003000041E050E0291710F050E040E0CA010895A4
:100310008F929F92AF92BF92EF92FF920F931F9393
:10032000CF93DF937C014A015B01B694A794979425
:100330008794423051056105710580F0440F551FC7
:100340008701040F151FE401CC0FDD1FCE0DDF1D4B
:10035000B801CE010E945801892B59F4DF91CF9149
:100360001F910F91FF90EF90BF90AF909F908F9053
:100370000895F8019081818128813981318320831A
:1003800098838983B501A401D0CF4F925F926F9279
:100390007F928F929F92AF92BF92CF92DF92EF9215
:1003A000FF920F931F93CF93DF9300D000D000D024
:1003B000CDB7DEB78C016A017B01DC018C91282F5F
:1003C00030E050E040E029833A834B835C83460170
:1003D0005701880C991CAA1CBB1C29813A814B81AE
:1003E0005C81281539054A055B05B8F426960FB6D9
:1003F000F894DEBF0FBECDBFDF91CF911F910F915B
:10040000FF90EF90DF90CF90BF90AF909F908F9034
:100410007F906F905F904F900895240135013FEFDA
:10042000431A530A630A730A89819A81AB81BC819A
:1004300084159505A605B70580F0B201660F771FF4
:10044000600F711FC401880F991F800F911F0E94B8
:100450005801892B11F0530142013401660C771CBD
:10046000600E711ECC0CDD1CD801AC0DBD1DBE8311
:10047000AD83B301CD010E945801892B09F4B6CF99
:10048000ED81FE8190818181D3012D913C91119765
:10049000318320839C9311968C937501640197CFCF
:1004A000E6E1F6E040814F5F408350E070E060E0BD
:1004B000E82FEE0FFF0BED55FD4F0190F081E02D81
:1004C000238530E0F901E35AFC4F908191509083ED
:1004D000FA01EE0FFF1FEA5EF94F220F331F9170F2
:1004E000922B9083818386E196E00C948801E6E16B
:1004F000F6E040814F5F408350E070E060E0FA0139
:10050000EE0FFF1FEA5EF94FA82FAA0FBB0BA756ED
:10051000BD4F0D90BC91A02D13969C91908381832B
:1005200086E196E00C948801CF93DF93E6E1F6E054
:1005300080819FEF980F9083D281C38190E0880FD4
:10054000991F8A5E994FDC018D919C9193838283E0
:1005500041E050E060E070E0CF010E94C5018D2FC6
:100560009C2FDF91CF91089580914A03811114C08F
:100570008091710190917201A0917301B091740109
:100580008F3F2FEF9207A207B20741F00497A10512
:10059000B10534F481E0089584E0089580E0089581
:1005A00082E00895CF93DF93880F990BFC01ED55FE
:1005B000FD4F0190F081E02D0084F185E02D309712
:1005C000E1F02281211119C021E0228387569D4F3D
:1005D000EC01A881B98113968C91139781832081B6
:1005E00030E0F901E35AFC4F808181508083220F73
:1005F000331F8170822B13968C93DF91CF910895D6
:10060000CF93DF93880F990BFC01ED55FD4F0190BF
:10061000F081E02D0084F185E02D309761F022819A
:10062000213049F4128287569D4FEC01A881B9818F
:10063000818113968C93DF91CF91089580917501FC
:1006400090917601A0917701B0917801409171016C
:1006500050917201609173017091740148175907AC
:100660006A077B0741F0E0916F01F091700121E092
:1006700024830C9477020895CF93DF93D0E0C0E0F9
:10068000882389F0C0916901D0916A01E0916D01E0
:10069000F0916E018481833031F081E08483809118
:1006A00071010E947702E0916F01F0917001F09367
:1006B0006E01E0936D0180916B0190916C019093BC
:1006C0006A018093690180917501309176012091D2
:1006D000770190917801809371013093720120939A
:1006E00073019093740192E094830E94D202CE0130
:1006F000DF91CF910895809171010E940003E091F4
:100700006D01F0916E018281882319F085E0848368
:10071000089514820895CF93DF93282F220F330B6F
:10072000F901E756FD4FC081D1819A812D553D4F8A
:10073000D901ED91FC912485921780F4911105C0A7
:1007400095E09C8391E090937A010E9450028A8107
:100750008F5F8A8380E0DF91CF91089584E0FBCFA3
:10076000E82FEE0FFF0BE756FD4F0190F081E02DD3
:10077000118210820C945A0B1F93CF93DF930E9427
:100780009402182F892F492F092E000C550B660B48
:10079000770B4093750150937601609377017093C6
:1007A0007801292F220F330BF901E756FD4FC08145
:1007B000D181D0937001C0936F012D553D4FF90148
:1007C0002081318130936C0120936B019C819530A5
:1007D00019F40E94B0031B8310927A01DF91CF912C
:1007E0001F910895E0917501F0917601EE0FFF1FC2
:1007F000E756FD4F0190F081E02D9091180683811E
:10080000891740F40E941E030E94BC0383E080937A
:100810007901089580E0FBCF81E0809379010C9409
:10082000BC03EF92FF920F931F93CF93DF93C1E02E
:1008300001C0CC0F8A95EAF72091AB023091AC024F
:100840008091A1029091A2021092160610926A0164
:100850001092690130936C0120936B0110926E012C
:1008600010926D019093700180936F018FEF9FEF55
:10087000DC018093710190937201A0937301B09396
:1008800074018093750190937601A0937701B093E2
:1008900078011092790110927A0184E00E948B0312
:1008A0000FEF12E0D0E0F80181918F018C2319F055
:1008B0008D2F0E948B03DF5FD430A9F70BEF12E07E
:1008C0008DE6E82E82E0F82ED1E0F80181918F01CB
:1008D0008C2339F0F70180819181FC01D6870E9439
:1008E000A904F2E0EF0EF11C82E00F3F180769F750
:1008F000DF91CF911F910F91FF90EF9008950E948B
:100900004C0681110E946D06E0916D01F0916E011F
:1009100080819181892B21F0809171010E943208A0
:100920000C9495070E944C0681110E946D06E0917F
:100930006D01F0916E0180819181892B21F0809170
:1009400071010E9432080C947D0781E080934B0373
:100950000895CF92DF92EF92FF920F931F93CF9360
:10096000DF93FC01A081B1810D90BC91A02D549624
:100970008D919C915597009709F445C04285538508
:100980006485758530E020E0EC01CA84DB84EC846A
:10099000FD844C155D056E057F0508F049C08C018E
:1009A00013830283358324830115110519F0E801AF
:1009B000FD83EC832115310509F444C0E901FB8373
:1009C000EA835696CD91DC9157970A851B852C8535
:1009D0003D855096CD90DD90ED90FC9053970C1591
:1009E0001D052E053F0598F5C416D506E606F70643
:1009F00028F0401751076207730788F45796FC9355
:100A0000EE9356970CC05596FC93EE9354975796D9
:100A1000FC93EE9356971582148213821282DF9113
:100A2000CF911F910F91FF90EF90DF90CF9008959D
:100A3000EC010A811B819C010115110509F4B0CF5D
:100A4000C801A2CF5596FC93EE935497BACFC41623
:100A5000D506E606F70668F2E2CFCF93DF93DC0116
:100A6000ED91FC9111970190F081E02D8489958999
:100A70001296CD91DC9113978A179B0711F4D58BB1
:100A8000C48B868997898A179B0711F4D78BC68BED
:100A9000209731F014968D919C9115979D838C83AE
:100AA00014960D90BC91A02D109721F01396DC9315
:100AB000CE93129786899789892B21F48489958909
:100AC000978B868BDF91CF910895EF92FF920F93D2
:100AD0001F93CF93DF93FC0180914B03882309F48C
:100AE000ACC084859585A685B7850196A11DB11DED
:100AF00084879587A687B7874081518162817381FA
:100B000084179507A607B70709F097C080899189D0
:100B1000A289B3890196A11DB11D448155816681C9
:100B20007781481759076A077B0718F480E090E03F
:100B3000DC01808B918BA28BB38B14861586168675
:100B40001786C689D789209709F477C04A855B85BF
:100B50006C857D85481759076A077B0709F06DC0CA
:100B6000CE01DC011296ED90FC90E114F10469F0E5
:100B7000D7011A960D911D912D913C911D9740170B
:100B800051076207730709F45FC02C813D8121156D
:100B9000310529F0D9011396FC92EE921297E114D7
:100BA000F10429F0D70115963C932E9314972489CC
:100BB0003589C217D30711F4F58AE48AE114F104E8
:100BC00009F444C0F78AE68A8F01FC01138212827D
:100BD000EA80FB80E881F9810280F381E02DCE017B
:100BE00009958E819F81A885B9850097A105B105DA
:100BF00091F14A855B856C857D85840F951FA61FC5
:100C0000B71FF801448155816681778148175907DC
:100C10006A077B0740F44095509560957095840F66
:100C2000951FA61FB71F8A879B87AC87BD87CE01FC
:100C30000E94A904E701209759F6DF91CF911F91F7
:100C40000F91FF90EF900895C7018BCF24893589CC
:100C5000378B268BB9CF1E86EDCFFC0182810C9499
:100C60008B030E944C06809168010895809368016F
:100C70000E9411040E94A5040C940C040C94590BBE
:100C8000CF93C82F0E94B402811102C00E94970B1B
:100C90008C2FCF910C946400809158038130D9F04F
:100CA0008091500390915103A0915203B09153034E
:100CB000892B8A2B8B2B79F481E04091540350913E
:100CC00055036091560370915703452B462B472BD4
:100CD00019F480E0089581E008951092580310926D
:100CE000540310925503109256031092570310921A
:100CF00050031092510310925203109253038091AB
:100D00004C0390914D03A0914E03B0914F038093FB
:100D1000590390935A03A0935B03B0935C03089527
:100D20000E949A0B8091590390915A03A0915B0302
:100D3000B0915C030196A11DB11D8093590390935E
:100D40005A03A0935B03B0935C038091540390918A
:100D50005503A0915603B09157030196A11DB11DF3
:100D60008093540390935503A0935603B093570375
:100D700008958091540390915503A0915603B0912A
:100D800057030097A105B10569F1409159035091AE
:100D90005A0360915B0370915C03415051096109F2
:100DA00071094093590350935A0360935B03709306
:100DB0005C030197A109B1098093540390935503F3
:100DC000A0935603B09357038091590390915A030F
:100DD000A0915B03B0915C03892B8A2B8B2B11F4C0
:100DE0000C94980B08958091540390915503A09111
:100DF0005603B0915703892B8A2B8B2B89F4809152
:100E0000500390915103A0915203B0915303892B49
:100E10008A2B8B2B29F40E949A0B81E08093580334
:100E2000089580915803882321F0109258030C9460
:100E3000980B08950E949E0B8091590390915A033C
:100E4000A0915B03B0915C030196A11DB11D80933D
:100E5000590390935A03A0935B03B0935C03809172
:100E6000500390915103A0915203B0915303019606
:100E7000A11DB11D8093500390935103A093520381
:100E8000B093530308958091500390915103A09122
:100E90005203B09153030097A105B10569F1409148
:100EA000590350915A0360915B0370915C03415068
:100EB0005109610971094093590350935A03609392
:100EC0005B0370935C030197A109B1098093500300
:100ED00090935103A0935203B0935303809159030D
:100EE00090915A03A0915B03B0915C03892B8A2BEC
:100EF0008B2B11F40C949C0B08950E944C068823B4
:100F000011F083E1089580E00895CF93C82F0E94E7
:100F10004C068C2F0E948B03C82F80917A0181117F
:100F20000E94F2038C2FCF910895CF930E944C061C
:100F3000C3E1811101C0C0E0E0916D01F0916E014B
:100F40008281815082830E947B0381E080937901BA
:100F50000E94BC038C2FCF910895CF93C82F0E947D
:100F60004C06E0916D01F0916E0182818150828387
:100F70008C2F0E948B03C82F81110AC00E947B0313
:100F800081E0809379010E94BC038C2FCF9108955A
:100F9000E0916D01F0916E0182818F5F8283F5CFC8
:100FA000CF930E944C06C3E1811101C0C0E0809143
:100FB00071010E9400030E94F203809171019091DF
:100FC0007201A0917301B09174014091750150912B
:100FD0007601609177017091780184179507A607D3
:100FE000B70711F40E94D2028C2FCF910895CF93AE
:100FF000DF93EC010E944C06882391F083E140913D
:1010000071015091720160917301709174014430CB
:1010100051056105710534F44883DF91CF9108953E
:1010200080E0EDCF9091F1019883F7CF0F931F935C
:10103000CF93C82F8B010E944C06882389F083E14F
:10104000EC2FEE0FFF0BE756FD4F0190F081E02DE6
:1010500094819370F8019083CF911F910F9108951F
:1010600080E0EECF880F990BFC01E756FD4FA08181
:10107000B181ED91FC911197309769F01D921C920E
:101080002091F10193818481228314821382E92FBC
:10109000F82F3097B9F70895CF93C82F0E944C06C8
:1010A000882381F183E1EC2FF0E0EE0FFF1FED507C
:1010B000FD4F0190F081E02D909171019283A091FC
:1010C0006D01B0916E012D913C9111973483238372
:1010D0001196FC93EE9313969C9113979183208124
:1010E0009695921768F430E0F901E35AFC4F90812D
:1010F00091509083220F331F9170922B13969C93E3
:10110000CF91089580E0CFCFCF93DF93C82F0E9477
:101110004C06D3E1811101C0D0E0EC2FF0E0EE0FDE
:10112000FF1FED50FD4F0190F081E02DA0916D016A
:10113000B0916E01818113968C9313978381948172
:101140008D939C93148213828091F10182830E947B
:10115000F2038D2FDF91CF910895DC01ED91FC9189
:1011600084819581DC01ED91FC9109941F93CF93CB
:10117000DF93182FEB010E944C06882361F183E175
:10118000E12FF0E0EE0FFF1FE359FD4F0190F081DA
:10119000E02D0190F081E02D0190F081E02D408163
:1011A0005181628173814C835D836E837F8344812F
:1011B000558166817781488359836A837B83408523
:1011C000518562857385488759876A877B87DF9158
:1011D000CF911F91089580E0D3CF8F929F92AF92CD
:1011E000BF92CF92DF92EF92FF920F931F93CF9314
:1011F000C82F8B010E944C068823E9F183E1EC2F74
:10120000F0E0EE0FFF1FE359FD4F0190F081E02D5C
:101210009685913091F54285538564857585019059
:10122000F081E02D0190F081E02DC088D188E28826
:10123000F3884C155D056E057F0540F4848095802C
:10124000A680B780480D591D6A1D7B1D4C195D098C
:101250006E097F09F8014083518362837383CF91C4
:101260001F910F91FF90EF90DF90CF90BF90AF90C4
:101270009F908F90089580E0C2CF85E0F0CF8F924D
:101280009F92AF92BF92CF92DF92EF92FF920F9315
:101290001F93CF93DF93D82F6A017B014801590137
:1012A0000E944C06C3E1811101C0C0E0ED2FF0E0C7
:1012B000EE0FFF1FE359FD4F0190F081E02D868571
:1012C00081113DC0A081B1810D90BC91A02D50969F
:1012D0004D915D916D917C9153974C0D5D1D6E1DEF
:1012E0007F1D14968D919D910D90BC91A02D84171A
:1012F0009507A607B70740F4481B590B6A0B7B0BF1
:101300004150510961097109428753876487758784
:1013100086829782A086B18681E08687CF010E946F
:10132000A9048C2FDF91CF911F910F91FF90EF9027
:10133000DF90CF90BF90AF909F908F900895C7E0BF
:10134000F0CF8F929F92AF92BF92CF92DF92EF92A7
:10135000FF920F931F93CF93DF93C82F4A015B0136
:10136000680179010E944C06D3E1811101C0D0E0EF
:10137000EC2FF0E0EE0FFF1FE359FD4F0190F081DD
:10138000E02D868581111BC082869386A486B58652
:10139000C682D782E086F18681E08687CF010E94EF
:1013A000A9048D2FDF91CF911F910F91FF90EF90A6
:1013B000DF90CF90BF90AF909F908F900895D7E02F
:1013C000F0CF0F931F93CF93DF93C82F0E944C064B
:1013D000D3E1811101C0D0E0EC2FF0E0EE0FFF1F50
:1013E000E359FD4F00811181F8018685813059F460
:1013F000C8010E942D05F80116868D2FDF91CF912F
:101400001F910F910895D5E0F8CF26E040E052EC0F
:1014100061E070E083E793E00C941F0E8F929F923F
:10142000AF92BF92CF92DF92EF92FF9228EF31E01E
:10143000DC010E94A60E4B015C01C12CD12C76016F
:10144000C814D904EA04FB0441F00E94120B8FEF88
:10145000C81AD80AE80AF80AF3CFFF90EF90DF9095
:10146000CF90BF90AF909F908F900895CF93C091F1
:10147000FA028C2F0E94A40062EF71E083E793E0F0
:101480000E944C0C88EC90E00E940E0A67E072E02B
:1014900083E793E00E944C0C8C2F0E94A800CF9110
:1014A0000C948C006FE172E083E793E00E944C0C97
:1014B0008CEB92E00E940E0A6CE272E083E793E00C
:1014C0000E944C0C0C948C00CF92DF92EF92FF9212
:1014D000CF930E94120B6B0184E690E00E940E0AEB
:1014E000C091FA028C2F0E94A40067E372E083E7A8
:1014F00093E00E944C0C88EC90E00E940E0A0E943F
:10150000120B0D2C000CEE08FF08AB01BC014C19AE
:101510005D096E097F092AE030E083E793E00E94CD
:10152000BC0C6CE472E083E793E00E944C0C8C2FBF
:101530000E94A800CF91FF90EF90DF90CF900C9485
:101540008C008091F9020E94BC008091F8020E94F8
:10155000BC008091F7020E94BC0064E672E083E761
:1015600093E00E94400C0C948C008BEC91E00C9466
:10157000FD0008951F920F920FB60F9211242F9322
:101580003F934F935F936F937F938F939F93AF930B
:10159000BF93EF93FF9380916A0390916B03A091A7
:1015A0006C03B0916D033091690323E0230F2D3755
:1015B00098F50196A11DB11D2093690380936A03DC
:1015C00090936B03A0936C03B0936D0380916E03B3
:1015D00090916F03A0917003B09171030196A11DCA
:1015E000B11D80936E0390936F03A0937003B0932B
:1015F00071030E94B50AFF91EF91BF91AF919F9146
:101600008F917F916F915F914F913F912F910F90AB
:101610000FBE0F901F90189526E8230F0296A11D6C
:10162000B11DCACF2FB7F89460916A0370916B0314
:1016300080916C0390916D032FBF089584B58260F3
:1016400084BD84B5816084BD85B5826085BD85B566
:10165000816085BDEEE6F0E0808181608083E1E815
:10166000F0E010828081826080838081816080834D
:10167000E0E8F0E0808181608083E1EBF0E0808150
:1016800084608083E0EBF0E0808181608083EAE722
:10169000F0E08081846080838081826080838081AB
:1016A000816080838081806880831092C10008956A
:1016B000FFCFFFCFCF93DF93880F990BFC01ED5540
:1016C000FD4FC081D181EC81FD8131978A819B8161
:1016D000E80FF91F8D85DF011197823029F584E825
:1016E00090E080839C939E818F81DF0112979C9371
:1016F00011978C93CF0104979F01295031091E92B5
:10170000A217B307E1F720E8DF011A972C9342975D
:101710001E92A817B907E1F7A881B9817797ED93D1
:10172000FC93DF91CF91089580EA90E0DACF08959D
:1017300078940895F894089578940895F894089505
:1017400008950E941E0B0E94A00B0E94B90A0E94DD
:10175000050A809172030E94400690E080E008959F
:101760008091030380937203089508951F920F924E
:101770000FB60F9211242F933F934F935F936F9364
:101780007F938F939F93AF93BF93EF93FF93E091DA
:10179000ED01F091EE010995FF91EF91BF91AF91AD
:1017A0009F918F917F916F915F914F913F912F9179
:1017B0000F900FBE0F901F9018951F920F920FB6AB
:1017C0000F9211242F933F934F935F936F937F93C7
:1017D0008F939F93AF93BF93EF93FF93E091EF01AC
:1017E000F091F0010995FF91EF91BF91AF919F9119
:1017F0008F917F916F915F914F913F912F910F90BA
:101800000FBE0F901F901895AF92BF92CF92DF92AC
:10181000EF92FF920F931F93CF93DF936C017B01A5
:101820008B01040F151FEB015E01AE18BF08C01736
:10183000D10759F06991D601ED91FC910190F081A9
:10184000E02DC6010995892B79F7C501DF91CF916C
:101850001F910F91FF90EF90DF90CF90BF90AF90CE
:101860000895FB0101900020E9F73197AF01461B75
:10187000570BDC01ED91FC910280F381E02D09947E
:101880006115710511F00C94310C90E080E0089521
:1018900064E373E00C94310C0F931F93CF93DF93A9
:1018A0008C01D0E0C0E06115710519F00E94310C87
:1018B000EC01C8010E94480C8C0F9D1FDF91CF9155
:1018C0001F910F9108958F929F92AF92BF92EF92C6
:1018D000FF920F931F93CF93DF93CDB7DEB7A197FE
:1018E0000FB6F894DEBF0FBECDBF7C01FA01CB016D
:1018F00019A2223008F42AE08E010F5D1F4F822EBC
:10190000912CB12CA12CBF01A50194010E94840E41
:10191000F901CA016A300CF5605DD8016E938D0142
:10192000232B242B252B79F790E080E0109721F0D2
:10193000BD01C7010E94310CA1960FB6F894DEBF1D
:101940000FBECDBFDF91CF911F910F91FF90EF9010
:10195000BF90AF909F908F900895695CDECF211566
:10196000310541F4DC01ED91FC910190F081E02D15
:10197000642F09940C94630C0F931F93CF93DF9300
:10198000EC010E94AF0C8C01CE010E94480C800F2C
:10199000911FDF91CF911F910F9108951F920F9288
:1019A0000FB60F9211242F938F939F93EF93FF9372
:1019B000E0918303F09184038081E0918903F091A9
:1019C0008A0382FD1BC0908180918C038F5F8F738F
:1019D00020918D03821741F0E0918C03F0E0ED58E7
:1019E000FC4F958F80938C03FF91EF919F918F9186
:1019F0002F910F900FBE0F901F9018958081F4CFFC
:101A00001F920F920FB60F9211242F933F934F9373
:101A10005F936F937F938F939F93AF93BF93EF9356
:101A2000FF9383E793E00E94900DFF91EF91BF91A8
:101A3000AF919F918F917F916F915F914F913F9166
:101A40002F910F900FBE0F901F901895E3E7F3E0D2
:101A50001382128288EE93E0A0E0B0E08483958345
:101A6000A683B7838BE393E09183808385EC90E03A
:101A70009587848784EC90E09787868780EC90E058
:101A8000918B808B81EC90E0938B828B82EC90E049
:101A9000958B848B86EC90E0978B868B118E128EC3
:101AA000138E148E0895FC01918D228D892F90E064
:101AB000805C9F4F821B91098F7399270895FC01C9
:101AC000918D828D981731F0828DE80FF11D858DF3
:101AD00090E008958FEF9FEF0895FC01918D828D26
:101AE000981761F0A28DAE0FBF2FB11D5D968C913E
:101AF000928D9F5F9F73928F90E008958FEF9FEF7D
:101B00000895FC01538D448D252F30E0842F90E003
:101B1000821B930B541710F0CF96089501970895E8
:101B2000FC01A48DA80FB92FB11DA35ABF4F2C9152
:101B3000848D90E001968F739927848FA689B78949
:101B40002C93A089B1898C91837080648C93938D40
:101B5000848D981306C00288F389E02D80818F7DE3
:101B600080830895CF93DF93EC01888D8823B9F0AB
:101B7000AA89BB89E889F9898C9185FD03C0808198
:101B800086FD0DC00FB607FCF7CF8C9185FFF2CF15
:101B9000808185FFEDCFCE010E94900DE9CFDF91CE
:101BA000CF910895EF92FF920F931F93CF93DF93FE
:101BB000EC0181E0888F9B8D8C8D98131AC0E88989
:101BC000F989808185FF15C09FB7F894EE89FF8958
:101BD0006083E889F98980818370806480839FBFF6
:101BE00081E090E0DF91CF911F910F91FF90EF90F6
:101BF0000895F62E0B8D10E00F5F1F4F0F73112706
:101C0000E02E8C8D8E110CC00FB607FCFACFE88940
:101C1000F989808185FFF5CFCE010E94900DF1CF2B
:101C2000EB8DEC0FFD2FF11DE35AFF4FF0829FB7B4
:101C3000F8940B8FEA89FB8980818062CFCFCF92A5
:101C4000DF92EF92FF921F93CF93DF93EC016A0133
:101C50007B01122FE889F98982E08083C11481EE2B
:101C6000D806E104F104A1F060E079E08DE390E0B2
:101C7000A70196010E94840E2150310941095109A2
:101C80005695479537952795211580E1380798F0A7
:101C9000E889F989108260E874E88EE190E0A70194
:101CA00096010E94840E215031094109510956952F
:101CB000479537952795EC85FD853083EE85FF8523
:101CC0002083188EEC89FD891083EA89FB89808145
:101CD00080618083EA89FB89808188608083EA89CA
:101CE000FB89808180688083EA89FB8980818F7D80
:101CF0008083DF91CF911F91FF90EF90DF90CF9085
:101D00000895F8940C94C20EA1E21A2EAA1BBB1BD4
:101D1000FD010DC0AA1FBB1FEE1FFF1FA217B307B7
:101D2000E407F50720F0A21BB30BE40BF50B661FCD
:101D3000771F881F991F1A9469F760957095809591
:101D400090959B01AC01BD01CF0108950E94B30E97
:101D5000B7FF0895821B930B0895EE0FFF1F0590A8
:101D6000F491E02D0994A29FB001B39FC001A39FFD
:101D7000700D811D1124911DB29F700D811D1124C4
:081D8000911D0895F894FFCFB6
:101D8800000000000000000000000000000000004B
:101D9800000000000000000000000000000000003B
:101DA800000000000000000000000000000000002B
:101DB800000000000000000000000000000000001B
:101DC800000000000000000000000000000000000B
:101DD80000000000000000000000000000000000FB
:101DE8000000000000000000FF0000E502000064A1
:101DF80003FFFFFFFFFFFFFFFF0000750200000069
:101E0800000000000010A40000027E020000000094
:101E1800F00A0000F00A000002870200000000DC5F
:101E2800050000DC05000002900200000000E80345
:101E38000000E803000002000000050000000003A5
:101E4800040000000204000000010401000000FF7B
:101E5800FF0000010000000000000000000000007A
:101E68000000000600FF00000400FF0000B50BB5ED
:101E78000BFF7461736B4120686F6C64732072652B
:101E8800736F75726365007461736B412072656C62
:101E98006561736573207265736F7572636500742D
:101EA80061736B4220737461727473007461736B35
:101EB8004220656E6473007461736B4320686F6CB5
:101EC8006473207265736F75726365007461736BF8
:101ED800432072656C6561736573207265736F75F5
:101EE8007263650073687574646F776E00A80199F2
:101EF800018A017B01CB01AD087B022D0603CB01D2
:101F0800AD0884022D0600CB01AD088D022D060117
:101F1800CB01AD0896022D0602C601C101BC01B76E
:101F2800016403D702C902BB02AD02E50276069638
:101F3800058000A10A000003050100100590048037
:101F480000360A0000020301001205100480005246
:101F58000A000001020100940514058000640A00CB
:101F68000000010100240626065000580B0000045A
:101F7800000100E801E30102010000010101010183
:101F880001010000430711071A07F306920490069F
:101F98007F04B906950736063E064C08850784086F
:101FA800AD07B608F707ED0831063F09D007A109C4
:101FB800E10916080D0A0000000000D20D040C818A
:0A1FC8000DB20D530D6D0D5F0D00FD
:00000001FF
